{
  "_format": "hh-sol-artifact-1",
  "contractName": "EventBooking",
  "sourceName": "contracts/EventBooking.sol",
  "abi": [
    {
      "inputs": [],
      "stateMutability": "nonpayable",
      "type": "constructor"
    },
    {
      "inputs": [
        {
          "internalType": "string",
          "name": "_name",
          "type": "string"
        },
        {
          "internalType": "uint256",
          "name": "_capacity",
          "type": "uint256"
        }
      ],
      "name": "createEvent",
      "outputs": [],
      "stateMutability": "nonpayable",
      "type": "function"
    },
    {
      "inputs": [],
      "name": "eventCount",
      "outputs": [
        {
          "internalType": "uint256",
          "name": "",
          "type": "uint256"
        }
      ],
      "stateMutability": "view",
      "type": "function"
    },
    {
      "inputs": [
        {
          "internalType": "uint256",
          "name": "",
          "type": "uint256"
        }
      ],
      "name": "events",
      "outputs": [
        {
          "internalType": "string",
          "name": "name",
          "type": "string"
        },
        {
          "internalType": "uint256",
          "name": "capacity",
          "type": "uint256"
        },
        {
          "internalType": "uint256",
          "name": "registered",
          "type": "uint256"
        }
      ],
      "stateMutability": "view",
      "type": "function"
    },
    {
      "inputs": [],
      "name": "owner",
      "outputs": [
        {
          "internalType": "address",
          "name": "",
          "type": "address"
        }
      ],
      "stateMutability": "view",
      "type": "function"
    },
    {
      "inputs": [
        {
          "internalType": "address",
          "name": "",
          "type": "address"
        },
        {
          "internalType": "uint256",
          "name": "",
          "type": "uint256"
        }
      ],
      "name": "reservations",
      "outputs": [
        {
          "internalType": "bool",
          "name": "",
          "type": "bool"
        }
      ],
      "stateMutability": "view",
      "type": "function"
    },
    {
      "inputs": [
        {
          "internalType": "uint256",
          "name": "eventId",
          "type": "uint256"
        }
      ],
      "name": "reserve",
      "outputs": [],
      "stateMutability": "nonpayable",
      "type": "function"
    }
  ],
  "bytecode": "0x6080604052348015600f57600080fd5b5033600360006101000a81548173ffffffffffffffffffffffffffffffffffffffff021916908373ffffffffffffffffffffffffffffffffffffffff160217905550610f1f806100606000396000f3fe608060405234801561001057600080fd5b50600436106100625760003560e01c80630118895c146100675780630b7914301461009757806371be2e4a146100c9578063819b25ba146100e75780638da5cb5b146101035780639a4d438514610121575b600080fd5b610081600480360381019061007c9190610622565b61013d565b60405161008e919061067d565b60405180910390f35b6100b160048036038101906100ac9190610698565b61016c565b6040516100c093929190610764565b60405180910390f35b6100d161021e565b6040516100de91906107a2565b60405180910390f35b61010160048036038101906100fc9190610698565b610224565b005b61010b610408565b60405161011891906107cc565b60405180910390f35b61013b6004803603810190610136919061091c565b61042e565b005b60016020528160005260406000206020528060005260406000206000915091509054906101000a900460ff1681565b600060205280600052604060002060009150905080600001805461018f906109a7565b80601f01602080910402602001604051908101604052809291908181526020018280546101bb906109a7565b80156102085780601f106101dd57610100808354040283529160200191610208565b820191906000526020600020905b8154815290600101906020018083116101eb57829003601f168201915b5050505050908060010154908060020154905083565b60025481565b6002548110610268576040517f08c379a000000000000000000000000000000000000000000000000000000000815260040161025f90610a24565b60405180910390fd5b600160003373ffffffffffffffffffffffffffffffffffffffff1673ffffffffffffffffffffffffffffffffffffffff168152602001908152602001600020600082815260200190815260200160002060009054906101000a900460ff1615610306576040517f08c379a00000000000000000000000000000000000000000000000000000000081526004016102fd90610a90565b60405180910390fd5b600080828152602001908152602001600020600101546000808381526020019081526020016000206002015410610372576040517f08c379a000000000000000000000000000000000000000000000000000000000815260040161036990610afc565b60405180910390fd5b60018060003373ffffffffffffffffffffffffffffffffffffffff1673ffffffffffffffffffffffffffffffffffffffff168152602001908152602001600020600083815260200190815260200160002060006101000a81548160ff021916908315150217905550600080828152602001908152602001600020600201600081548092919061040090610b4b565b919050555050565b600360009054906101000a900473ffffffffffffffffffffffffffffffffffffffff1681565b600360009054906101000a900473ffffffffffffffffffffffffffffffffffffffff1673ffffffffffffffffffffffffffffffffffffffff163373ffffffffffffffffffffffffffffffffffffffff16146104be576040517f08c379a00000000000000000000000000000000000000000000000000000000081526004016104b590610bdf565b60405180910390fd5b60008111610501576040517f08c379a00000000000000000000000000000000000000000000000000000000081526004016104f890610c4b565b60405180910390fd5b60405180606001604052808381526020018281526020016000815250600080600254815260200190815260200160002060008201518160000190816105469190610e17565b5060208201518160010155604082015181600201559050506002600081548092919061057190610b4b565b91905055505050565b6000604051905090565b600080fd5b600080fd5b600073ffffffffffffffffffffffffffffffffffffffff82169050919050565b60006105b98261058e565b9050919050565b6105c9816105ae565b81146105d457600080fd5b50565b6000813590506105e6816105c0565b92915050565b6000819050919050565b6105ff816105ec565b811461060a57600080fd5b50565b60008135905061061c816105f6565b92915050565b6000806040838503121561063957610638610584565b5b6000610647858286016105d7565b92505060206106588582860161060d565b9150509250929050565b60008115159050919050565b61067781610662565b82525050565b6000602082019050610692600083018461066e565b92915050565b6000602082840312156106ae576106ad610584565b5b60006106bc8482850161060d565b91505092915050565b600081519050919050565b600082825260208201905092915050565b60005b838110156106ff5780820151818401526020810190506106e4565b60008484015250505050565b6000601f19601f8301169050919050565b6000610727826106c5565b61073181856106d0565b93506107418185602086016106e1565b61074a8161070b565b840191505092915050565b61075e816105ec565b82525050565b6000606082019050818103600083015261077e818661071c565b905061078d6020830185610755565b61079a6040830184610755565b949350505050565b60006020820190506107b76000830184610755565b92915050565b6107c6816105ae565b82525050565b60006020820190506107e160008301846107bd565b92915050565b600080fd5b600080fd5b7f4e487b7100000000000000000000000000000000000000000000000000000000600052604160045260246000fd5b6108298261070b565b810181811067ffffffffffffffff82111715610848576108476107f1565b5b80604052505050565b600061085b61057a565b90506108678282610820565b919050565b600067ffffffffffffffff821115610887576108866107f1565b5b6108908261070b565b9050602081019050919050565b82818337600083830152505050565b60006108bf6108ba8461086c565b610851565b9050828152602081018484840111156108db576108da6107ec565b5b6108e684828561089d565b509392505050565b600082601f830112610903576109026107e7565b5b81356109138482602086016108ac565b91505092915050565b6000806040838503121561093357610932610584565b5b600083013567ffffffffffffffff81111561095157610950610589565b5b61095d858286016108ee565b925050602061096e8582860161060d565b9150509250929050565b7f4e487b7100000000000000000000000000000000000000000000000000000000600052602260045260246000fd5b600060028204905060018216806109bf57607f821691505b6020821081036109d2576109d1610978565b5b50919050565b7f496e76616c6964206576656e7420494400000000000000000000000000000000600082015250565b6000610a0e6010836106d0565b9150610a19826109d8565b602082019050919050565b60006020820190508181036000830152610a3d81610a01565b9050919050565b7f416c726561647920726573657276656400000000000000000000000000000000600082015250565b6000610a7a6010836106d0565b9150610a8582610a44565b602082019050919050565b60006020820190508181036000830152610aa981610a6d565b9050919050565b7f4576656e742069732066756c6c00000000000000000000000000000000000000600082015250565b6000610ae6600d836106d0565b9150610af182610ab0565b602082019050919050565b60006020820190508181036000830152610b1581610ad9565b9050919050565b7f4e487b7100000000000000000000000000000000000000000000000000000000600052601160045260246000fd5b6000610b56826105ec565b91507fffffffffffffffffffffffffffffffffffffffffffffffffffffffffffffffff8203610b8857610b87610b1c565b5b600182019050919050565b7f4f6e6c79206f776e65722063616e20637265617465206576656e747300000000600082015250565b6000610bc9601c836106d0565b9150610bd482610b93565b602082019050919050565b60006020820190508181036000830152610bf881610bbc565b9050919050565b7f4361706163697479206d7573742062652067726561746572207468616e203000600082015250565b6000610c35601f836106d0565b9150610c4082610bff565b602082019050919050565b60006020820190508181036000830152610c6481610c28565b9050919050565b60008190508160005260206000209050919050565b60006020601f8301049050919050565b600082821b905092915050565b600060088302610ccd7fffffffffffffffffffffffffffffffffffffffffffffffffffffffffffffffff82610c90565b610cd78683610c90565b95508019841693508086168417925050509392505050565b6000819050919050565b6000610d14610d0f610d0a846105ec565b610cef565b6105ec565b9050919050565b6000819050919050565b610d2e83610cf9565b610d42610d3a82610d1b565b848454610c9d565b825550505050565b600090565b610d57610d4a565b610d62818484610d25565b505050565b5b81811015610d8657610d7b600082610d4f565b600181019050610d68565b5050565b601f821115610dcb57610d9c81610c6b565b610da584610c80565b81016020851015610db4578190505b610dc8610dc085610c80565b830182610d67565b50505b505050565b600082821c905092915050565b6000610dee60001984600802610dd0565b1980831691505092915050565b6000610e078383610ddd565b9150826002028217905092915050565b610e20826106c5565b67ffffffffffffffff811115610e3957610e386107f1565b5b610e4382546109a7565b610e4e828285610d8a565b600060209050601f831160018114610e815760008415610e6f578287015190505b610e798582610dfb565b865550610ee1565b601f198416610e8f86610c6b565b60005b82811015610eb757848901518255600182019150602085019450602081019050610e92565b86831015610ed45784890151610ed0601f891682610ddd565b8355505b6001600288020188555050505b50505050505056fea2646970667358221220cba6f6db407575a333241931c14e4b3a61441913788d7ba4f465caf3bf73588564736f6c634300081c0033",
  "linkReferences": {},
  "deployedLinkReferences": {}
}